040000011PA               000004000000000001000006000000000002R    PP000000000000000412 C       
064047655PA               000004000000000001000004651000000001R    PP000000000002475712 C       
064141829PA               000004001000000002000004651000000001R    PP000000000002488912 C       
064142162PA               000004001000000002000004650000000002R    PP000000000002489012 C       
075611338PA               000004001000000002000004266000000001R    PP000000000003625212 C       
080000346KA               000002211000000004000004316000000001R    KK000000000003703302 C       
082058536PA               000004001000000002000004265000000002R    PP000000000005072312 C       
082837354PA               000004000000000001000004265000000002R    PP000000000005751312 C       
082842020PA               000004000000000001000004651000000001R    PP000000000005760162 C       
083408574PA               000004000000000001000004266000000001R    PP000000000006181212 C       
083445232PA               000004001000000002000004266000000001R    PP000000000006209212 C       
083514338TA               000003300000000001000000000000000000R    TT000000000006235102 C       
083514338TA               000003300000000001000005013000000001R    TT000000000006235202 C       
085252570PA               000004001000000002000004276000000001R    PP000000000007542012 C       
085253002PA               000004001000000002000004286000000001R    PP000000000007543712 C       
085254002PA               000004001000000002000004296000000001R    PP000000000007547812 C       
085255002PA               000004001000000002000004306000000001R    PP000000000007550612 C       
085256002PA               000004001000000002000004316000000001R    PP000000000007553162 C       
085257003PA               000004001000000002000004326000000001R    PP000000000007556302 C       
085258252PA               000004200000000001000004326000000001R    PP000000000007561262 C       
085258257TA               000000000000000000000005013000000001R    TT000000000007561302 C       
085258258TA               000003465000000001000005013000000001R    TT000000000007561402 C       
085323112TA               000003465000000001000004315000000002R    TT000000000007610262 C       
085328545PA               000004201000000002000004326000000001R    PP000000000007616662 C       
085544633PA               000004201000000002000004285000000001R    PP000000000007758212 C       
085611853TA               000003465000000001000005013000000001R    TT000000000007796302 C       
085611853TA               000003465000000001000004284000000002R    TT000000000007796462 C       
090226763TA               000003465000000001000005013000000001R    TT000000000008187762 C       
090226763TA               000003465000000001000004368000000002R    TT000000000008187802 C       
090303008TA               000003465000000001000005013000000001R    TT000000000008256502 C       
090303008TA               000003465000000001000004284000000002R    TT000000000008256662 C       
092049107ZA               000004222000000001000000000000000000R    ZZ000000000009924762 C       
092049107ZA               000004222000000001000004285000000001R    ZZ000000000009924802 C       
092110004PA               000004205000000001000004285000000001R    PP000000000010014502 C       
092111004PA               000004212000000001000004285000000001R    PP000000000010015202 C       
092112193PA               000004223000000002000004285000000001R    PP000000000010017262 C       
092506101PA               000004223000000002000004294000000001R    PP000000000010682302 C       
092612438PA               000004212000000001000004294000000001R    PP000000000010807862 C       
092613762ZA               000004222000000001000000000000000000R    ZZ000000000010836102 C       
092613812ZA               000000000000000000000000000000000000R    ZZ000000000010837962 C       
092614002PA               000004202000000001000004294000000001R    PP000000000010847462 C       
092615002PA               000004201000000002000004294000000001R    PP000000000010863662 C       
092620448PA               000004201000000002000004337000000006R    PP000000000010967302 C       
092621404TA               000003465000000001000005013000000001R    TT000000000010992662 C       
092621404TA               000003465000000001000004293000000002R    TT000000000010992862 C       
092624006PA               000004201000000002000004346000000006R    PP000000000010998902 C       
092633138PA               000004201000000002000004308000000001R    PP000000000011042102 C       
092633603PA               000004201000000002000004311000000001R    PP000000000011049102 C       
092637503ZA               000004219000000001000000000000000000R    ZZ000000000011053662 C       
092637503ZA               000004219000000001000004284000000001R    ZZ000000000011053712 C       
092639680PA               000004220000000002000004311000000001R    PP000000000011092562 C       
092640804PA               000004220000000002000004308000000001R    PP000000000011095202 C       
092641604PA               000004220000000002000004302000000001R    PP000000000011104902 C       
092655499TA               000003465000000001000005013000000001R    TT000000000011144802 C       
092655499TA               000003465000000001000004283000000002R    TT000000000011144962 C       
092800008PA               000004221000000001000004302000000001R    PP000000000011322062 C       
092800009ZA               000004220000000001000004283000000001R    ZZ000000000011323402 C       
092800009TA               000003465000000001000004282000000001R    TT000000000011323862 C       
092800009TA               000004225000000001000004282000000001R    TT000000000011324012 C       
092804006PA               000004221000000001000004300000000001R    PP000000000011422202 C       
092815005TA               000003465000000001000004282000000001R    TT000000000012459362 C       
092822453TA               000003465000000001000004281000000002R    TT000000000013226362 C       
092822453TA               000004229000000001000004281000000002R    TT000000000013226412 C       
092830004TA               000003465000000001000004281000000002R    TT000000000013546662 C       
092830004TA               000003465000000001000004280000000001R    TT000000000013546762 C       
092833605PA               000004221000000001000004298000000001R    PP000000000013667002 C       
092840864TA               000003946000000001000004280000000001R    TT000000000013939102 C       
092840864TA               000004052000000001000004280000000001R    TT000000000013939202 C       
092840864TA               000004052000000002000004280000000001R    TT000000000013939302 C       
092852473PA               000004222000000002000004298000000001R    PP000000000014024162 C       
092858236ZA               000004225000000001000004283000000001R    ZZ000000000014075862 C       
092858384TA               000004056000000001000004280000000001R    TT000000000014080902 C       
092900003PA               000004223000000001000004298000000001R    PP000000000014098302 C       
092900003ZA               000004226000000001000004283000000001R    ZZ000000000014098962 C       
092900003TA               000004229000000001000004280000000001R    TT000000000014099012 C       
092900300YA               000000000000000000000004365000000001R    YY000000000014122302 C       
092900300YA               000004145000000001000004365000000001R    YY000000000014122402 C       
092907003TA               000004229000000001000004279000000002R    TT000000000014246912 C       
092927060PA               000004230000000002000004298000000001R    PP000000000014573162 C       
092930003PA               000004231000000001000004298000000001R    PP000000000014614662 C       
092930004ZA               000004226000000001000004284000000001R    ZZ000000000014615202 C       
092930004TA               000004056000000001000004279000000002R    TT000000000014615702 C       
092930282YA               000004238000000008000004365000000001R    YY000000000014629662 C       
092930282YA               000004238000000008000004291000000008R    YY000000000014629702 C       
092930282YA               000004238000000008000004290000000001R    YY000000000014629802 C       
092930284DA               000004237000000017000000000000000000RFLOWDD000000000014630001AC       
092930284DA               000004237000000017000004292000000017RFLOWDD000000000014630101AC       
092940501TA               000004061000000001000004279000000002R    TT000000000014738100 C       
092940905PA               000004239000000003000004298000000001R    PP000000000014750460 C       
092945006PA               000004240000000001000004298000000001R    PP000000000014825760 C       
092945006ZA               000004225000000001000004284000000001R    ZZ000000000014826300 C       
092945006ZA               000004225000000001000004283000000001R    ZZ000000000014826700 C       
092945007TA               000004243000000001000004279000000002R    TT000000000014827310 C       
092945007PA               000004241000000003000004298000000001R    PP000000000014827800 C       
092945007PA               000004244000000003000004298000000001R    PP000000000014828960 C       
092958825ZA               000004145000000001000004283000000001R    ZZ000000000015011500 C       
092958825ZA               000004233000000001000004283000000001R    ZZ000000000015011600 C       
092958825ZA               000004234000000001000004283000000001R    ZZ000000000015011700 C       
092959011BA               000000000000000000000004279000000002R    BB000000000015044800 C       
093000010PA               000004247000000003000004298000000001R    PP000000000015074760 C       
093000010TA               000004243000000001000004279000000005R    TT000000000015075960 C       
093000016PA               000004247000000004000004298000000001R    PP000000000015091060 C       
093000033PA               000004248000000003000004298000000001R    PP000000000015119560 C       
093000033PA               000004248000000004000004298000000001R    PP000000000015119960 C       
093000059JA               000003568000000001000000000000000000R    JJ000000000015179400 C       
093000061JA               000003568000000001000004963000000001R    JJ000000000015183200 C       
093000069KA               000003568000000001000004316000000001R    KK000000000015194800 C       
093000074PA               000004248000000003000004298000000001R    PP000000000015202860 C       
093000085YA               000004239000000001000004290000000001R    YY000000000015225900 C       
093000086ZA               000004233000000001000004283000000001R    ZZ000000000015226500 C       
093000086TA               000004231000000002000004279000000005R    TT000000000015227800 C       
093000086TA               000004231000000002000004278000000001R    TT000000000015228060 C       
093000086TA               000004231000000002000004278000000002R    TT000000000015228960 C       
093000087TA               000004220000000002000004278000000002R    TT000000000015235700 C       
093000089PA               000004248000000003000004278000000003R    PP000000000015244810 C       
093000090TA               000004208000000002000004278000000002R    TT000000000015249700 C       
093000090PA               000004248000000003000004278000000004R    PP000000000015252110 C       
093000091PA               000004248000000003000004277000000001R    PP000000000015255010 C       
093000091PA               000004249000000001000004277000000001R    PP000000000015256810 C       
093000093PA               000004249000000001000004276000000003R    PP000000000015262810 C       
093000093PA               000004249000000002000004276000000003R    PP000000000015263310 C       
093000096TA               000004196000000002000004278000000002R    TT000000000015276000 C       
093000108TA               000004220000000001000004278000000002R    TT000000000015304300 C       
093000915TA               000004216000000002000004278000000002R    TT000000000015541900 C       
093001003PA               000004250000000003000004276000000003R    PP000000000015561410 C       
093001004BA               000004250000000002000004279000000002R    BB000000000015568600 C       
093001004PA               000004250000000004000004276000000003R    PP000000000015569510 C       
093001004BA               000004250000000002000004278000000001R    BB000000000015572900 C       
093001004BA               000004251000000001000004278000000001R    BB000000000015573760 C       
093001011ZA               000004253000000002000004280000000002R    ZZ000000000015623060 C       
093001011TA               000004253000000002000004278000000002R    TT000000000015623600 C       
093001011YA               000004253000000002000004280000000002R    YY000000000015626000 C       
093001011YA               000004253000000003000004280000000002R    YY000000000015626260 C       
093001011TA               000004253000000003000004278000000002R    TT000000000015626300 C       
093001012ZA               000004253000000003000004280000000002R    ZZ000000000015627400 C       
093001012YA               000004253000000003000004280000000003R    YY000000000015627760 C       
093001012BA               000004253000000002000004278000000001R    BB000000000015628000 C       
093001012ZA               000004253000000003000004280000000003R    ZZ000000000015628100 C       
093001012JA               000004253000000002000004280000000002R    JJ000000000015631100 C       
093001012PA               000004253000000002000004276000000003R    PP000000000015631800 C       
093001013JA               000004253000000002000004279000000001R    JJ000000000015634600 C       
093001013PA               000004253000000003000004276000000003R    PP000000000015636600 C       
093001016PA               000004253000000003000004280000000002R    PP000000000015650160 C       
093001016KA               000004253000000002000004316000000001R    KK000000000015650800 C       
093001017BA               000004253000000004000004278000000001R    BB000000000015654860 C       
093001017PA               000004253000000003000004280000000003R    PP000000000015654900 C       
093001021PA               000004253000000003000004280000000002R    PP000000000015673100 C       
093001104PA               000004253000000001000004280000000002R    PP000000000015899000 C       
093001104BA               000004253000000002000004278000000001R    BB000000000015899560 C       
093001104TA               000004253000000001000004278000000002R    TT000000000015899960 C       
093001104YA               000004253000000001000004280000000003R    YY000000000015900260 C       
093001104ZA               000004253000000001000004280000000003R    ZZ000000000015900560 C       
093001104TA               000004252000000001000004278000000002R    TT000000000015900800 C       
093001104YA               000004240000000002000004280000000003R    YY000000000015901100 C       
093001104ZA               000004252000000001000004280000000003R    ZZ000000000015901200 C       
093001104PA               000004250000000001000004280000000002R    PP000000000015901400 C       
093001104ZA               000004252000000001000004279000000001R    ZZ000000000015901500 C       
093001104JA               000004252000000001000004279000000001R    JJ000000000015901660 C       
093001104YA               000004240000000002000004279000000001R    YY000000000015901700 C       
093001104YA               000004240000000002000004279000000002R    YY000000000015902200 C       
093001104ZA               000004252000000001000004279000000002R    ZZ000000000015902500 C       
093001104KA               000004252000000001000004316000000001R    KK000000000015902960 C       
093001105PA               000004251000000001000004280000000002R    PP000000000015903200 C       
093001105PA               000004251000000001000004279000000001R    PP000000000015903500 C       
093001105PA               000004251000000001000004279000000002R    PP000000000015904400 C       
093001105BA               000004252000000002000004278000000001R    BB000000000015905160 C       
093001144YA               000004240000000002000004279000000001R    YY000000000015963900 C       
093001173PA               000004250000000001000004279000000002R    PP000000000016003600 C       
093001173JA               000004252000000001000004293000000002R    JJ000000000016003900 C       
093001173YA               000004240000000002000004280000000001R    YY000000000016004000 C       
093001173JA               000004240000000002000004293000000002R    JJ000000000016004100 C       
093001173ZA               000004240000000002000004279000000001R    ZZ000000000016004200 C       
093001174KA               000004240000000002000004316000000001R    KK000000000016004300 C       
093001174BA               000004252000000002000004279000000002R    BB000000000016004500 C       
093001174TA               000004252000000001000004278000000001R    TT000000000016004760 C       
093001174TA               000004240000000002000004278000000001R    TT000000000016004800 C       
093001174BA               000004251000000002000004279000000002R    BB000000000016004960 C       
093001174BA               000004250000000002000004279000000002R    BB000000000016005460 C       
093001175ZA               000004240000000002000004284000000001R    ZZ000000000016006900 C       
093001175PA               000004250000000001000004279000000001R    PP000000000016007000 C       
093001176YA               000004240000000002000004291000000008R    YY000000000016008000 C       
093001176TA               000004240000000002000004279000000005R    TT000000000016008160 C       
093001178KA               000004240000000002000004300000000003R    KK000000000016012600 C       
093001178DA               000004237000000017000004292000000017RFLOWDD000000000016012800AC     EA
093001180PA               000004250000000001000004293000000002R    PP000000000016015300 C       
093001181NA               000004263000000009000004275000000003O    NN000000000016016810ACB     A
093001182NA               000004263000000009000004275000000003R    NN000000000016018000 C       
093001182NA               000004261000000006000004275000000003R    NN000000000016018410 C       
093001182NA               000004261000000006000004275000000003R    NN000000000016018600ACA     A
093001182NA               000004266000000011000004275000000003R    NN000000000016018710 C       
093001183NA               000004266000000012000004275000000003R    NN000000000016019810 C       
093001183NA               000004266000000001000004275000000003R    NN000000000016020210 C       
093001183NA               000004261000000006000004275000000003R    NN000000000016021410ACA     A
093001186NA               000004264000000001000004275000000003R    NN000000000016022110ACA     A
093001186NA               000004264000000002000004275000000003R    NN000000000016022210ACA     A
093001194KA               000004240000000002000004275000000001R    KK000000000016027800 C       
093001356NA               000004264000000002000004275000000003R    NN000000000016138800ACC     A
093001447PA               000004250000000001000004275000000001R    PP000000000016187700 C       
093001447PA               000004250000000001000004275000000002R    PP000000000016187800 C       
093001507PA               000004250000000001000004275000000001R    PP000000000016219100 C       
093001512NA               000004264000000001000004275000000003R    NN000000000016220110ACC     A
093001512NA               000004264000000001000004275000000003R    NN000000000016220300ACA     A
093001518NA               000004261000000006000004275000000003R    NN000000000016221010ACA     A
093001579TA               000004240000000002000004279000000002R    TT000000000016239300 C       
093001580TA               000004240000000002000004275000000001R    TT000000000016239600 C       
093001968JA               000004240000000002000004279000000001R    JJ000000000016329200 C       
093001980JA               000004240000000002000004278000000001R    JJ000000000016330400 C       
093001983DA               000004127000000001000004292000000017RFLOWDD000000000016331201AC      A
093001988BA               000004250000000002000004278000000001R    BB000000000016332100 C       
093001988BA               000004250000000002000004278000000002R    BB000000000016332200 C       
093002004NA               000004261000000006000004275000000003R    NN000000000016339700 C       
093002018TA               000004244000000001000004275000000001R    TT000000000016359100 C       
093002018BA               000004250000000002000004274000000002R    BB000000000016359260 C       
093002018BA               000004240000000002000004274000000002R    BB000000000016359400 C       
093002018ZA               000004240000000002000004274000000002R    ZZ000000000016359700 C       
093002018TA               000004244000000002000004275000000001R    TT000000000016359800 C       
093002018TA               000004244000000002000004274000000002R    TT000000000016360000 C       
093002018JA               000004240000000002000004274000000002R    JJ000000000016360100 C       
093002018YA               000004240000000002000004274000000002R    YY000000000016360400 C       
093002018PA               000004250000000001000004274000000002R    PP000000000016360600 C       
093002018TA               000004244000000002000004274000000003R    TT000000000016360760 C       
093002018JA               000004240000000002000004274000000003R    JJ000000000016360800 C       
093002018KA               000004240000000002000004274000000002R    KK000000000016360900 C       
093002018ZA               000004240000000002000004274000000003R    ZZ000000000016361100 C       
093002018PA               000004250000000001000004274000000003R    PP000000000016361200 C       
093002026NA               000004261000000006000004275000000003R    NN000000000016372000ACB     A
093002027NA               000004261000000006000004274000000002R    NN000000000016373300ACB     A
093002045PA               000004250000000001000004274000000004R    PP000000000016386760 C       
093002062NA               000004261000000006000004273000000001R    NN000000000016398810 C       
093002063NA               000004261000000006000004273000000002R    NN000000000016399310 C       
093002103PA               000004250000000001000004273000000001R    PP000000000016429700 C       
093002104PA               000004250000000001000004273000000002R    PP000000000016430100 C       
093002156NA               000004261000000006000004273000000002R    NN000000000016450460ACB     A
093002184PA               000004250000000001000004273000000001R    PP000000000016458560 C       
093002184TA               000004244000000002000004274000000001R    TT000000000016458600 C       
093002184NA               000004261000000006000004273000000001R    NN000000000016458760ACB     A
093002184KA               000004240000000002000004275000000001R    KK000000000016458800 C       
093002184BA               000004240000000002000004278000000002R    BB000000000016458900 C       
093002184YA               000004240000000002000004291000000008R    YY000000000016459000 C       
093002184ZA               000004240000000002000004274000000002R    ZZ000000000016459100 C       
093002184JA               000004240000000002000004274000000001R    JJ000000000016459200 C       
093002184TA               000004244000000002000004275000000001R    TT000000000016459300 C       
093002184ZA               000004240000000002000004284000000001R    ZZ000000000016459400 C       
093002186NA               000004261000000006000004273000000001R    NN000000000016459600 C       
093002190NA               000004261000000006000004275000000003R    NN000000000016460800 C       
093002195KA               000004240000000002000004279000000001R    KK000000000016461500 C       
093002196KA               000004240000000002000004273000000001R    KK000000000016462000 C       
093002313DA               000004127000000001000004300000000012RFLOWDD000000000016512501AC      A
093002392TA               000004244000000001000004275000000001R    TT000000000016530500 C       
093002462YA               000004240000000002000004293000000002R    YY000000000016549100 C       
093002469NA               000004262000000001000004275000000003R    NN000000000016555560 C       
093002470NA               000004262000000002000004275000000003R    NN000000000016555660 C       
093002471NA               000004262000000002000004275000000003R    NN000000000016555700ACA     A
093002813DA               000004249000000016000004300000000012RFLOWDD000000000016617001AC      A
093002899JA               000004240000000002000004278000000001R    JJ000000000016627100 C       
093002900NA               000004262000000001000004275000000003R    NN000000000016627260ACA     A
093002902TA               000004244000000001000004278000000002R    TT000000000016627500 C       
093002902TA               000004244000000001000004273000000002R    TT000000000016627760 C       
093002913NA               000004261000000006000004275000000003R    NN000000000016629160ACA     A
093003004NA               000004261000000006000004275000000003R    NN000000000016646900ACC     A
093003010NA               000004261000000006000004275000000003R    NN000000000016651000ACA     A
093003013NA               000004261000000006000004275000000003R    NN000000000016654400 C       
093003014NA               000004261000000006000004275000000003R    NN000000000016655000ACB     A
093003078BA               000004240000000002000004277000000002R    BB000000000016701000 C       
093003078JA               000004240000000002000004277000000002R    JJ000000000016701100 C       
093003078YA               000004240000000002000004277000000002R    YY000000000016701200 C       
093003078BA               000004240000000002000004277000000003R    BB000000000016701300 C       
093003078ZA               000004240000000002000004277000000002R    ZZ000000000016701400 C       
093003078JA               000004240000000002000004277000000003R    JJ000000000016701500 C       
093003078YA               000004240000000002000004277000000003R    YY000000000016701600 C       
093003078ZA               000004240000000002000004277000000003R    ZZ000000000016701700 C       
093003114DA               000004249000000016000004286000000016RFLOWDD000000000016715901AC      A
093003201YA               000004249000000008000004277000000003R    YY000000000016731700 C       
093003201JA               000004249000000001000004277000000003R    JJ000000000016731800 C       
093003201YA               000004249000000009000004277000000003R    YY000000000016732000 C       
093003201YA               000004249000000009000004277000000002R    YY000000000016732100 C       
093003201JA               000004249000000001000004277000000002R    JJ000000000016732300 C       
093003995NA               000004261000000006000004274000000001R    NN000000000016870000ACB     A
093004007TA               000004249000000001000004273000000002R    TT000000000016873800 C       
093004007TA               000004249000000002000004273000000002R    TT000000000016873900 C       
093004116NA               000004262000000001000004274000000001R    NN000000000016919860ACB     A
093004116NA               000004262000000002000004274000000001R    NN000000000016920060ACB     A
093004117ZA               000004240000000002000004277000000001R    ZZ000000000016920600 C       
093004117BA               000004240000000002000004277000000001R    BB000000000016920700 C       
093004117BA               000004240000000002000004278000000002R    BB000000000016920800 C       
093004117YA               000004249000000009000004285000000008R    YY000000000016920900 C       
093004117JA               000004249000000001000004278000000001R    JJ000000000016921000 C       
093004117ZA               000004240000000002000004284000000001R    ZZ000000000016921300 C       
093004117NA               000004262000000002000004274000000001R    NN000000000016921500ACC     A
093004149PA               000004250000000001000004278000000002R    PP000000000016954100 C       
093004150PA               000004251000000001000004278000000002R    PP000000000016956000 C       
093004150PA               000004251000000002000004278000000002R    PP000000000016957100 C       
093004196YA               000004249000000009000004280000000002R    YY000000000016998800 C       
093004196TA               000004249000000002000004273000000003R    TT000000000016998960 C       
093004196ZA               000004240000000002000004280000000002R    ZZ000000000016999000 C       
093004197YA               000004249000000009000004280000000003R    YY000000000016999100 C       
093004220TA               000004262000000001000004273000000003R    TT000000000017007700 C       
093004220TA               000004262000000002000004273000000003R    TT000000000017007800 C       
093004220BA               000004247000000007000004278000000002R    BB000000000017007900 C       
093004220BA               000004247000000008000004278000000002R    BB000000000017008000 C       
093004230BA               000004247000000001000004278000000002R    BB000000000017009900 C       
093004230TA               000004262000000001000004273000000003R    TT000000000017010000 C       
093004230NA               000004261000000006000004274000000001R    NN000000000017010160ACC     A
093004230BA               000004240000000002000004278000000002R    BB000000000017010200 C       
093004230TA               000004249000000002000004273000000003R    TT000000000017010360 C       
093004230TA               000004249000000002000004272000000001R    TT000000000017010460 C       
093004231TA               000004249000000002000004272000000002R    TT000000000017010560 C       
093004231TA               000004249000000002000004272000000003R    TT000000000017010660 C       
093004231NA               000004261000000006000004274000000001R    NN000000000017010700ACA     A
093004231TA               000004249000000002000004271000000001R    TT000000000017010960 C       
093004231NA               000004261000000006000004274000000001R    NN000000000017011000 C       
093004232NA               000004261000000006000004274000000001R    NN000000000017011200ACB     A
093004233TA               000004249000000002000004271000000004R    TT000000000017011960 C       
093004245TA               000004249000000002000004271000000005R    TT000000000017017160 C       
093004248KA               000004240000000002000004279000000001R    KK000000000017017500 C       
093004249KA               000004240000000002000004271000000001R    KK000000000017018000 C       
093004255PA               000004251000000002000004271000000001R    PP000000000017030100 C       
093004256NA               000004261000000006000004271000000001R    NN000000000017030500ACB     A
093004256PA               000004251000000002000004271000000002R    PP000000000017030600 C       
093004256TA               000004249000000002000004271000000006R    TT000000000017031160 C       
093004256NA               000004261000000006000004271000000002R    NN000000000017031900ACB     A
093004294PA               000004251000000001000004271000000002R    PP000000000017046100 C       
093004295PA               000004250000000001000004271000000002R    PP000000000017046200 C       
093004317JA               000004261000000001000004278000000001R    JJ000000000017054200 C       
093004317BA               000004250000000002000004278000000002R    BB000000000017054500 C       
093004321TA               000004249000000002000004271000000005R    TT000000000017055160 C       
093004357NA               000004261000000006000004271000000001R    NN000000000017063800ACB     A
093004412TA               000004249000000002000004271000000006R    TT000000000017085760 C       
093004562XA               000004248000000018000000000000000000R    XX000000000017109500 C       
093004597PA               000004250000000001000004271000000001R    PP000000000017111900 C       
093004597JA               000004261000000001000004279000000001R    JJ000000000017112000 C       
093004597BA               000004250000000002000004278000000001R    BB000000000017112100 C       
093004597BA               000004250000000002000004280000000002R    BB000000000017112200 C       
093004598JA               000004261000000001000004280000000003R    JJ000000000017112300 C       
093004599XA               000004248000000018000004284000000018R    XX000000000017112400 C       
093004667XA               000004248000000018000004281000000001R    XX000000000017117800 C       
093004673JA               000004261000000001000004280000000005R    JJ000000000017118700 C       
093004674BA               000004250000000002000004280000000003R    BB000000000017118800 C       
093004674YA               000004249000000009000004280000000004R    YY000000000017119000 C       
093005563MA               000004248000000007000000000000000000R    MM000000000017261100 C       
093005564MA               000004248000000007000004284000000007R    MM000000000017261200 C       
093006345JA               000004261000000001000004271000000001R    JJ000000000017423200 C       
093006517BA               000004250000000002000004280000000002R    BB000000000017626600 C       
093006517YA               000004249000000009000004280000000003R    YY000000000017626700 C       
093006518KA               000004242000000001000004271000000001R    KK000000000017626800 C       
093006520XA               000004248000000018000004284000000018R    XX000000000017627200 C       
093006577BA               000004250000000002000004276000000001R    BB000000000017637600 C       
093006578BA               000004250000000002000004276000000002R    BB000000000017637700 C       
093006580YA               000004249000000009000004275000000003R    YY000000000017637900 C       
093006580YA               000004249000000009000004275000000004R    YY000000000017638000 C       
093006580KA               000004240000000002000004271000000001R    KK000000000017638100 C       
093006677JA               000004249000000003000004271000000001R    JJ000000000017652700 C       
093006678BA               000004242000000007000004276000000002R    BB000000000017652900 C       
093006678YA               000004249000000009000004275000000003R    YY000000000017653000 C       
093007003BA               000004242000000007000004271000000001R    BB000000000017703500 C       
093007003BA               000004242000000007000004271000000002R    BB000000000017703600 C       
093007004YA               000004249000000009000004271000000001R    YY000000000017704800 C       
093007004YA               000004249000000009000004271000000002R    YY000000000017705000 C       
093007004JA               000004249000000003000004271000000002R    JJ000000000017705200 C       
093007828KA               000004242000000001000004271000000001R    KK000000000017845300 C       
093007829KA               000004240000000002000004271000000001R    KK000000000017845500 C       
093007829JA               000004249000000003000004271000000001R    JJ000000000017845600 C       
093007829YA               000004249000000009000004271000000001R    YY000000000017845700 C       
093008641BA               000004242000000007000004271000000001R    BB000000000018024800 C       
093008698XA               000004248000000018000004274000000001R    XX000000000018027200 C       
093010773NA               000004261000000006000004271000000001R    NN000000000018506100ACC     A
093010832KA               000004240000000003000004271000000001R    KK000000000018512700 C       
093011739PA               000004250000000001000004280000000002R    PP000000000018635100 C       
093011739NA               000004261000000006000004273000000002R    NN000000000018635200ACC     A
093011739TA               000004249000000002000004271000000005R    TT000000000018635360 C       
093011743NA               000004261000000002000004273000000002R    NN000000000018635660ACC     A
093011745TA               000004249000000002000004271000000006R    TT000000000018635760 C       
093011777NA               000004261000000002000004270000000001R    NN000000000018636710ACA     A
093011778NA               000004261000000002000004270000000002R    NN000000000018636810ACA     A
093011778NA               000004261000000002000004270000000002R    NN000000000018636900 C       
093011778BA               000004242000000007000004276000000001R    BB000000000018637000 C       
093011778KA               000004241000000001000004271000000001R    KK000000000018637100 C       
093011778YA               000004249000000009000004273000000002R    YY000000000018637200 C       
093011779KA               000004241000000001000004273000000001R    KK000000000018637600 C       
093011780KA               000004241000000001000004270000000001R    KK000000000018638200 C       
093011781YA               000004249000000009000004273000000002R    YY000000000018638300ACB     A
093011781NA               000004261000000002000004270000000002R    NN000000000018638400ACB     A
093012820NA               000004261000000002000004270000000001R    NN000000000018755560ACB     A
093012821DA               000004249000000016000004300000000012RFLOWDD000000000018755601AC      A
093012827NA               000004261000000002000004273000000002R    NN000000000018756500ACB     A
093012832KA               000004242000000001000004270000000001R    KK000000000018756900 C       
093013176NA               000004261000000002000004274000000002R    NN000000000018792200ACB     A
093013176YA               000004249000000009000004274000000001R    YY000000000018792300ACB     A
093013177NA               000004261000000002000004274000000001R    NN000000000018792400ACB     A
093013177XA               000004248000000018000004284000000018R    XX000000000018792500 C       
093013178YA               000004249000000009000004280000000003R    YY000000000018792600ACB     A
093013234YA               000004249000000009000004272000000001R    YY000000000018799600ACB     A
093013234YA               000004249000000009000004272000000002R    YY000000000018799700ACB     A
093013237PA               000004250000000001000004271000000001R    PP000000000018799800 C       
093013237PA               000004250000000001000004271000000002R    PP000000000018799900 C       
093013238BA               000004242000000007000004271000000001R    BB000000000018800000 C       
093013238BA               000004242000000007000004271000000002R    BB000000000018800100 C       
093013239XA               000004248000000018000004271000000001R    XX000000000018800200 C       
093013239YA               000004249000000009000004271000000002R    YY000000000018800400ACB     A
093013663DA               000004249000000016000004283000000015RFLOWDD000000000018863101AC      A
093013756KA               000004261000000002000004270000000001R    KK000000000018873000 C       
093013756ZA               000004261000000003000004280000000002R    ZZ000000000018873160 C       
093013756PA               000004261000000003000004271000000002R    PP000000000018873200 C       
093013756ZA               000004261000000004000004280000000002R    ZZ000000000018873360 C       
093013757PA               000004261000000004000004271000000002R    PP000000000018873400 C       
093013757TA               000004261000000002000004271000000006R    TT000000000018873500 C       
093013757PA               000004261000000004000004271000000001R    PP000000000018873600 C       
093013757TA               000004261000000003000004271000000006R    TT000000000018873700 C       
093013757BA               000004246000000007000004271000000002R    BB000000000018873800 C       
093013757BA               000004246000000008000004271000000002R    BB000000000018873900 C       
093013757BA               000004246000000008000004271000000001R    BB000000000018874000 C       
093016617PA               000004261000000004000004270000000001R    PP000000000019292900 C       
093016617NA               000004261000000002000004270000000001R    NN000000000019293100ACB     A
093016617PA               000004261000000004000004270000000002R    PP000000000019293260 C       
093016617PA               000004261000000003000004270000000002R    PP000000000019293300 C       
093016618NA               000004261000000002000004270000000002R    NN000000000019293800ACB     A
093016762NA               000004261000000002000004270000000001R    NN000000000019314200ACB     A
093017069PA               000004261000000003000004270000000001R    PP000000000019427960 C       
093017069BA               000004246000000008000004276000000001R    BB000000000019428000 C       
093017069TA               000004261000000002000004271000000006R    TT000000000019428100 C       
093017070ZA               000004261000000003000004280000000002R    ZZ000000000019428260 C       
093017070XA               000004248000000018000004284000000018R    XX000000000019428300 C       
093017070YA               000004249000000009000004272000000001R    YY000000000019428500ACB     A
093017070YA               000004254000000003000004272000000001R    YY000000000019428600ACB     A
093017070YA               000004254000000004000004272000000001R    YY000000000019428800ACB     A
093017070YA               000004254000000007000004272000000001R    YY000000000019428900ACB     A
093017070JA               000004254000000001000004271000000001R    JJ000000000019429000 C       
093017072YA               000004254000000007000004280000000003R    YY000000000019429300ACB     A
093017121YA               000004254000000007000004280000000003R    YY000000000019436600ACC     A
093017122NA               000004261000000002000004270000000001R    NN000000000019436800ACC     A
093017134JA               000004254000000001000004271000000002R    JJ000000000019442100 C       
093017135ZA               000004261000000003000004271000000001R    ZZ000000000019442200 C       
093017135ZA               000004261000000003000004271000000002R    ZZ000000000019442300 C       
093017135XA               000004248000000018000004271000000001R    XX000000000019442400 C       
093017136BA               000004246000000008000004270000000002R    BB000000000019442560 C       
093017136BA               000004246000000008000004270000000003R    BB000000000019442660 C       
093017136YA               000004254000000006000004280000000003R    YY000000000019442700ACC     A
093017138YA               000004254000000006000004270000000004R    YY000000000019443060ACC     A
093017138JA               000004254000000001000004270000000001R    JJ000000000019443100 C       
093017138YA               000004254000000006000004270000000005R    YY000000000019443260ACC     A
093017138DA               000004127000000001000004283000000015RFLOWDD000000000019443301AC      A
093017181YA               000004254000000006000004270000000005R    YY000000000019452400ACB     A
093017182NA               000004261000000002000004270000000001R    NN000000000019452700ACB     A
093017222YA               000004254000000006000004270000000004R    YY000000000019457860ACB     A
093017222JA               000004254000000001000004271000000001R    JJ000000000019457900 C       
093017222BA               000004246000000008000004270000000002R    BB000000000019458000 C       
093017222ZA               000004261000000003000004271000000001R    ZZ000000000019458100 C       
093017223NA               000004261000000005000004270000000001R    NN000000000019458260ACB     A
093017945NA               000004261000000006000004270000000001R    NN000000000019511260ACB     A
093017949DA               000004248000000014000004283000000015RFLOWDD000000000019511301AC      A
093021863NA               000004261000000006000004270000000002R    NN000000000019871100ACB     A
093022373BA               000004246000000008000004270000000003R    BB000000000019916200 C       
093023653NA               000004261000000006000004270000000002R    NN000000000020063800ACB     A
093024331KA               000004243000000001000004270000000001R    KK000000000020167000 C       
093024331ZA               000004240000000002000004271000000001R    ZZ000000000020167100 C       
093024331PA               000004255000000003000004270000000001R    PP000000000020167200 C       
093024331PA               000004250000000001000004270000000001R    PP000000000020167300 C       
093024331TA               000004249000000002000004271000000006R    TT000000000020167400 C       
093024331BA               000004246000000001000004270000000003R    BB000000000020167500 C       
093024331BA               000004242000000007000004270000000003R    BB000000000020167700 C       
093024331YA               000004254000000003000004270000000004R    YY000000000020167800ACB     A
093024331YA               000004249000000001000004270000000004R    YY000000000020167900ACB     A
093024332JA               000004249000000003000004271000000001R    JJ000000000020168000 C       
093024332NA               000004256000000001000004270000000002R    NN000000000020168160ACB     A
093024333NA               000004256000000001000004270000000002R    NN000000000020168200ACC     A
093024333KA               000004242000000001000004270000000001R    KK000000000020168300 C       
093024337TA               000004249000000002000004269000000001R    TT000000000020168460 C       
093024337TA               000004249000000002000004269000000002R    TT000000000020168560 C       
093024337PA               000004256000000001000004270000000001R    PP000000000020168600 C       
093024337KA               000004241000000001000004270000000001R    KK000000000020168800 C       
093024337BA               000004256000000001000004270000000003R    BB000000000020168900 C       
093024337PA               000004256000000001000004277000000003R    PP000000000020169000 C       
093024338BA               000004256000000002000004270000000003R    BB000000000020169160 C       
093024338PA               000004256000000002000004277000000003R    PP000000000020169200 C       
093024338BA               000004256000000001000004270000000003R    BB000000000020169360 C       
093024338BA               000004250000000002000004270000000003R    BB000000000020169400 C       
093024338PA               000004256000000002000004269000000001R    PP000000000020169500 C       
093024338BA               000004242000000007000004270000000003R    BB000000000020169600 C       
093024338NA               000004256000000001000004270000000001R    NN000000000020169700ACC     A
093024338NA               000004256000000001000004269000000001R    NN000000000020169800ACC     A
093024338PA               000004256000000002000004269000000002R    PP000000000020169900 C       
093024338NA               000004256000000001000004269000000002R    NN000000000020170000ACC     A
093024339TA               000004249000000002000004269000000005R    TT000000000020170160 C       
093024339KA               000004241000000001000004287000000003R    KK000000000020170200 C       
093024340TA               000004249000000002000004269000000006R    TT000000000020170460 C       
093024340KA               000004241000000001000004269000000001R    KK000000000020170500 C       
093024373NA               000004256000000001000004268000000001R    NN000000000020172060ACC     A
093024374NA               000004256000000001000004268000000002R    NN000000000020172160ACC     A
093024374PA               000004256000000002000004269000000001R    PP000000000020172200 C       
093024374PA               000004256000000002000004268000000001R    PP000000000020172300 C       
093024375BA               000004242000000007000004268000000001R    BB000000000020172400 C       
093024375BA               000004242000000007000004268000000002R    BB000000000020172500 C       
093024376TA               000004249000000002000004268000000001R    TT000000000020172600 C       
093024377TA               000004249000000002000004268000000002R    TT000000000020172700 C       
093024377TA               000004249000000002000004268000000003R    TT000000000020172860 C       
093024377TA               000004249000000002000004268000000004R    TT000000000020172960 C       
093024432KA               000004240000000002000004269000000001R    KK000000000020177900 C       
093024461JA               000004249000000001000004271000000001R    JJ000000000020179700 C       
093024461PA               000004256000000001000004268000000001R    PP000000000020180060 C       
093024463MA               000000000000000000000004284000000007R    MM000000000020180500 C       
093024463DA               000004127000000001000004283000000015RFLOWDD000000000020180601AC      A
093024629YA               000004249000000001000004278000000006R    YY000000000020200900ACB     A
093024630BA               000004256000000001000004268000000002R    BB000000000020201000 C       
093024630BA               000004256000000002000004268000000002R    BB000000000020201160 C       
093024631JA               000004249000000001000004280000000003R    JJ000000000020201500 C       
093024631ZA               000004240000000002000004280000000002R    ZZ000000000020201600 C       
093024631XA               000004248000000018000004284000000018R    XX000000000020201700 C       
093024632TA               000004256000000001000004268000000004R    TT000000000020201800 C       
093024632TA               000004256000000002000004268000000004R    TT000000000020201900 C       
093024633YA               000004249000000004000004278000000006R    YY000000000020202100ACB     A
093024633YA               000004249000000007000004278000000006R    YY000000000020202300ACB     A
093024694JA               000004249000000001000004269000000001R    JJ000000000020207300 C       
093024694YA               000004249000000007000004269000000001R    YY000000000020207400ACB     A
093024694YA               000004249000000007000004269000000002R    YY000000000020207500ACB     A
093024694JA               000004249000000001000004269000000002R    JJ000000000020207600 C       
093024695YA               000004249000000007000004268000000006R    YY000000000020207760ACB     A
093024726NA               000004256000000003000004268000000002R    NN000000000020209460ACC     A
093024779KA               000004256000000001000004269000000001R    KK000000000020211500 C       
093024779PA               000004256000000003000004268000000001R    PP000000000020211600 C       
093024779ZA               000004256000000003000004280000000002R    ZZ000000000020211700 C       
093024779ZA               000004256000000004000004280000000002R    ZZ000000000020211860 C       
093024779TA               000004256000000003000004268000000004R    TT000000000020211900 C       
093024779TA               000004256000000002000004268000000004R    TT000000000020212000 C       
093024779BA               000004256000000001000004268000000002R    BB000000000020212100 C       
093025263XA               000000000000000000000004284000000018R    XX000000000020258700 C       
093025263MA               000004243000000006000004284000000007R    MM000000000020258800 C       
093025264DA               000004244000000013000004283000000015RFLOWDD000000000020259101AC      A
093025341KA               000004256000000001000004285000000001R    KK000000000020260800 C       
093025341ZA               000004256000000003000004280000000002R    ZZ000000000020261060 C       
093025344KA               000004256000000001000004268000000001R    KK000000000020261200 C       
093025654BA               000004242000000007000004268000000002R    BB000000000020268900 C       
093025656PA               000004256000000002000004268000000001R    PP000000000020269000 C       
093025780BA               000004256000000001000004268000000002R    BB000000000020271900 C       
093025780BA               000004256000000002000004268000000002R    BB000000000020272000 C       
093025781YA               000004256000000001000004268000000006R    YY000000000020272100ACB     A
093025781YA               000004256000000002000004268000000006R    YY000000000020272200ACB     A
093025781JA               000004256000000001000004269000000002R    JJ000000000020272300 C       
093026162XA               000004243000000014000004284000000018R    XX000000000020300900 C       
093026379YA               000004256000000001000004268000000006R    YY000000000020318300ACB     A
093026379JA               000004249000000001000004269000000002R    JJ000000000020318400 C       
093026379BA               000004256000000001000004268000000002R    BB000000000020318500 C       
093029255NA               000004256000000002000004268000000002R    NN000000000020494460ACC     A
093030268BA               000004242000000007000004268000000002R    BB000000000020712000 C       
093030268YA               000004249000000007000004268000000006R    YY000000000020712100ACB     A
093030269BA               000004256000000001000004268000000002R    BB000000000020712200 C       
093030269BA               000004256000000002000004268000000002R    BB000000000020712300 C       
093030269YA               000004256000000001000004268000000006R    YY000000000020712400ACB     A
093030269YA               000004256000000002000004268000000006R    YY000000000020712500ACB     A
093030269JA               000004256000000001000004269000000002R    JJ000000000020712600 C       
093030662JA               000004249000000001000004269000000002R    JJ000000000020793900 C       
093030662YA               000004256000000001000004268000000006R    YY000000000020794000ACB     A
093031093KA               000004241000000001000004268000000001R    KK000000000020841700 C       
093031093ZA               000004240000000002000004280000000002R    ZZ000000000020841860 C       
093031093PA               000004250000000004000004268000000001R    PP000000000020841900 C       
093031093PA               000004250000000001000004268000000001R    PP000000000020842000 C       
093031093BA               000004256000000001000004268000000002R    BB000000000020842100 C       
093031093TA               000004256000000001000004268000000004R    TT000000000020842260 C       
093031094PA               000004249000000001000004268000000001R    PP000000000020842400 C       
093031094KA               000004256000000001000004268000000001R    KK000000000020842600 C       
093031094ZA               000004256000000002000004280000000002R    ZZ000000000020842700 C       
093031094PA               000004256000000002000004268000000001R    PP000000000020842800 C       
093031094ZA               000004256000000003000004280000000002R    ZZ000000000020842960 C       
093031095BA               000004242000000007000004268000000002R    BB000000000020843000 C       
093031095YA               000004249000000007000004268000000006R    YY000000000020843100ACB     A
093031097BA               000004256000000001000004268000000002R    BB000000000020843300 C       
093031097BA               000004256000000002000004268000000002R    BB000000000020843400 C       
093031098YA               000004256000000001000004268000000006R    YY000000000020843500ACB     A
093031098JA               000004256000000001000004269000000002R    JJ000000000020843600 C       
093031098YA               000004256000000002000004268000000006R    YY000000000020843700ACB     A
093032112JA               000004249000000001000004269000000002R    JJ000000000020934500 C       
093032112YA               000004256000000001000004268000000006R    YY000000000020934600ACB     A
093032112ZA               000004256000000002000004280000000002R    ZZ000000000020934760 C       
093032113BA               000004256000000001000004268000000002R    BB000000000020934800 C       
093032944BA               000004242000000007000004268000000002R    BB000000000021007200 C       
093032944YA               000004249000000007000004268000000006R    YY000000000021007300ACB     A
093032945BA               000004256000000001000004268000000002R    BB000000000021007400 C       
093032945BA               000004256000000002000004268000000002R    BB000000000021007500 C       
093032945YA               000004256000000001000004268000000006R    YY000000000021007600ACB     A
093032945JA               000004256000000001000004269000000002R    JJ000000000021007700 C       
093032945YA               000004256000000002000004268000000006R    YY000000000021007800ACB     A
093033638NA               000004256000000003000004268000000002R    NN000000000021101760ACC     A
093033804BA               000004256000000002000004268000000003R    BB000000000021111700 C       
093033804JA               000004249000000001000004269000000002R    JJ000000000021111800 C       
093033804BA               000004256000000001000004268000000003R    BB000000000021111900 C       
093033804YA               000004256000000001000004268000000006R    YY000000000021112000ACB     A
093033862YA               000004256000000001000004269000000001R    YY000000000021125660ACB     A
093033865JA               000004249000000001000004269000000001R    JJ000000000021125700 C       
093033865YA               000004256000000001000004278000000006R    YY000000000021125800ACB     A
093037685BA               000004242000000007000004268000000003R    BB000000000021448600 C       
093037685YA               000004249000000007000004278000000006R    YY000000000021449000ACB     A
093038142BA               000004256000000001000004268000000003R    BB000000000021499800 C       
093038142YA               000004256000000001000004278000000006R    YY000000000021499900ACB     A
093038142BA               000004256000000002000004268000000003R    BB000000000021500000 C       
093038142YA               000004256000000002000004278000000006R    YY000000000021500100ACB     A
093038142JA               000004256000000001000004269000000001R    JJ000000000021500200 C       
093042429YA               000004256000000001000004278000000006R    YY000000000021957800ACB     A
093042429JA               000004249000000001000004269000000001R    JJ000000000021957900 C       
093042431NA               000004256000000003000004268000000002R    NN000000000021958000ACC     A
093042431TA               000004256000000002000004268000000004R    TT000000000021958100 C       
093042470JA               000004256000000003000004269000000001R    JJ000000000021959100 C       
093042499NA               000004256000000003000004268000000001R    NN000000000021965260ACC     A
093042499NA               000004256000000003000004269000000001R    NN000000000021965300ACC     A
093042519NA               000004256000000003000004268000000001R    NN000000000021965800ACC     A
093042523JA               000004249000000001000004269000000001R    JJ000000000021966260 C       
093042584NA               000004256000000004000004268000000001R    NN000000000021968060ACC     A
093042584KA               000004256000000002000004268000000001R    KK000000000021968100 C       
093049329NA               000004256000000003000004268000000001R    NN000000000022606360ACC     A
093049398NA               000004256000000005000004268000000001R    NN000000000022614360ACC     A
093054286NA               000004256000000005000004268000000002R    NN000000000022959400ACC     A
093059255PA               000004256000000002000004269000000001R    PP000000000023288100 C       
093059255BA               000004256000000002000004268000000002R    BB000000000023288200 C       
093059258YA               000004256000000001000004268000000001R    YY000000000023288400ACB     A
093059258JA               000004249000000001000004268000000001R    JJ000000000023288500 C       
093059259YA               000004256000000001000004268000000002R    YY000000000023288600ACB     A
093059259TA               000004256000000002000004268000000005R    TT000000000023288960 C       
093059406PA               000004256000000002000004268000000001R    PP000000000023300000 C       
093059406PA               000004256000000002000004268000000002R    PP000000000023300200 C       
093102515YA               000004256000000001000004268000000001R    YY000000000023828200ACB     A
093102515JA               000004249000000001000004269000000001R    JJ000000000023828300 C       
093104308PA               000004256000000002000004268000000003R    PP000000000024001800 C       
093105029NA               000004256000000003000004268000000002R    NN000000000024053960ACC     A
093105089NA               000004256000000006000004268000000002R    NN000000000024059860ACC     A
093106551ZA               000004256000000002000004269000000001R    ZZ000000000024189700 C       
093106551ZA               000004256000000002000004269000000002R    ZZ000000000024189800 C       
093106553JA               000004249000000001000004268000000004R    JJ000000000024189900 C       
093106555ZA               000004256000000002000004268000000002R    ZZ000000000024190000 C       
093106760BA               000004256000000001000004268000000002R    BB000000000024227900 C       
093106760YA               000004249000000007000004268000000001R    YY000000000024228000ACB     A
093106760BA               000004242000000007000004268000000002R    BB000000000024228100 C       
093108538BA               000004241000000007000004268000000002R    BB000000000024389000 C       
093108538XA               000000000000000000000004284000000018R    XX000000000024389100 C       
093108538XA               000000000000000000000000000000000000R    XX000000000024389200 C       
093108538MA               000000000000000000000004284000000007R    MM000000000024389300 C       
093108538MA               000000000000000000000000000000000000R    MM000000000024389400 C       
093108539DA               000004127000000001000004283000000015RFLOWDD000000000024389601AC      A
093108539DA               000004127000000001000004300000000012RFLOWDD000000000024389701AC      A
093111013BA               000004256000000001000004268000000002R    BB000000000024563600 C       
093111014BA               000004256000000002000004268000000002R    BB000000000024563700 C       
093111014YA               000004256000000001000004268000000001R    YY000000000024563800ACB     A
093111014JA               000004256000000001000004268000000004R    JJ000000000024563900 C       
093111014YA               000004256000000002000004268000000001R    YY000000000024564000ACB     A
093115233XA               000004243000000009000000000000000000R    XX000000000024887300 C       
093115233XA               000004243000000009000004281000000009R    XX000000000024887500 C       
093115233MA               000004243000000004000000000000000000R    MM000000000024887700 C       
093115234MA               000004243000000004000004281000000004R    MM000000000024887800 C       
093115235DA               000004244000000008000004300000000012RFLOWDD000000000024887901AC      A
093115235DA               000004244000000008000004280000000008RFLOWDD000000000024888001AC      A
093118074PA               000004256000000002000004268000000002R    PP000000000025097800 C       
093118075YA               000004256000000001000004268000000001R    YY000000000025097900ACB     A
093118075JA               000004249000000001000004268000000004R    JJ000000000025098100 C       
093118077TA               000004256000000002000004268000000004R    TT000000000025098360 C       
093118077NA               000004256000000006000004268000000002R    NN000000000025098400ACC     A
093118079BA               000004256000000001000004268000000002R    BB000000000025099200 C       
093118079BA               000004241000000007000004268000000002R    BB000000000025099300 C       
093118079YA               000004249000000007000004268000000001R    YY000000000025099400ACB     A
093118090PA               000004254000000002000004268000000002R    PP000000000025100500 C       
093118090KA               000004256000000001000004268000000001R    KK000000000025100600 C       
093118090ZA               000004240000000002000004268000000002R    ZZ000000000025100700 C       
093118090ZA               000004240000000002000004267000000001R    ZZ000000000025100860 C       
093118090ZA               000004240000000002000004267000000003R    ZZ000000000025100960 C       
093118090ZA               000004240000000002000004265000000001R    ZZ000000000025101060 C       
093118090TA               000004256000000001000004268000000004R    TT000000000025101100 C       
093118090PA               000004254000000002000004267000000001R    PP000000000025101200 C       
093118091TA               000004255000000001000004268000000004R    TT000000000025101300 C       
093118091TA               000004255000000001000004267000000001R    TT000000000025101400 C       
093118091PA               000004254000000002000004264000000001R    PP000000000025101560 C       
093118091KA               000004242000000001000004268000000001R    KK000000000025101600 C       
093118091TA               000004255000000001000004267000000002R    TT000000000025101700 C       
093118091NA               000004256000000001000004268000000002R    NN000000000025101860ACC     A
093118091TA               000004255000000001000004267000000003R    TT000000000025101900 C       
093118091TA               000004255000000001000004267000000004R    TT000000000025102000 C       
093118091TA               000004255000000001000004266000000001R    TT000000000025102100 C       
093118091KA               000004242000000001000004267000000001R    KK000000000025102200 C       
093118091PA               000004254000000002000004264000000002R    PP000000000025102360 C       
093118091NA               000004254000000001000004268000000002R    NN000000000025102460ACC     A
093118091KA               000004242000000001000004264000000001R    KK000000000025102500 C       
093118091TA               000004255000000001000004264000000001R    TT000000000025102600 C       
093118091ZA               000004240000000002000004262000000001R    ZZ000000000025102760 C       
093118091NA               000004254000000001000004268000000002R    NN000000000025102800ACB     A
093118091TA               000004255000000001000004263000000001R    TT000000000025102900 C       
093118091NA               000004252000000001000004268000000002R    NN000000000025103000ACB     A
093118091KA               000004241000000001000004264000000001R    KK000000000025103100 C       
093118091TA               000004255000000001000004261000000001R    TT000000000025103210 C       
093118092NA               000004252000000001000004268000000002R    NN000000000025103300 C       
093118092NA               000004252000000002000004268000000002R    NN000000000025103400 C       
093118092KA               000004240000000003000004264000000001R    KK000000000025103500 C       
093118092YA               000004249000000007000004268000000004R    YY000000000025103600ACB     A
093118092YA               000004249000000007000004268000000007R    YY000000000025103700ACB     A
093118092DA               000004244000000008000004262000000001RFLOWDD000000000025103801AC      A
093118092DA               000004244000000008000004280000000008RFLOWDD000000000025103901AC      A
093118093KA               000004240000000003000004262000000001R    KK000000000025104100 C       
093118093NA               000004252000000002000004266000000001R    NN000000000025104200 C       
093118093NA               000004252000000001000004266000000001R    NN000000000025104300 C       
093118093YA               000004249000000007000004268000000006R    YY000000000025104400ACB     A
093118093NA               000004252000000001000004266000000002R    NN000000000025104500 C       
093118093TA               000004251000000001000004261000000001R    TT000000000025104660 C       
093118093BA               000004240000000002000004268000000002R    BB000000000025104700 C       
093118093NA               000004250000000001000004266000000002R    NN000000000025104800 C       
093118095TA               000004251000000001000004261000000002R    TT000000000025104960 C       
093118095YA               000004249000000004000004268000000006R    YY000000000025105000ACB     A
093118095ZA               000004254000000001000004262000000001R    ZZ000000000025105100 C       
093118095NA               000004249000000002000004266000000002R    NN000000000025105200 C       
093118095ZA               000004254000000002000004262000000001R    ZZ000000000025105300 C       
093118095YA               000004249000000001000004268000000006R    YY000000000025105400ACB     A
093118095JA               000004244000000001000004268000000004R    JJ000000000025105500 C       
093118095YA               000004244000000007000004268000000006R    YY000000000025105600ACB     A
093118096YA               000004244000000010000004268000000006R    YY000000000025105700ACB     A
093118096NA               000004249000000002000004265000000001R    NN000000000025105800 C       
093118097NA               000004249000000002000004265000000002R    NN000000000025105900 C       
093118097NA               000004249000000002000004265000000001R    NN000000000025106100 C       
093118099NA               000004249000000002000004264000000001R    NN000000000025107100 C       
093118100TA               000004256000000001000004261000000002R    TT000000000025107210 C       
093118100TA               000004256000000002000004261000000002R    TT000000000025107310 C       
093118100TA               000004256000000001000004261000000002R    TT000000000025107410 C       
093118100NA               000004249000000002000004264000000002R    NN000000000025107500 C       
093118100BA               000004241000000007000004268000000002R    BB000000000025107600 C       
093118100TA               000004251000000001000004261000000002R    TT000000000025107760 C       
093118100YA               000004244000000007000004268000000006R    YY000000000025107800ACB     A
093118100KA               000004241000000001000004262000000001R    KK000000000025107900 C       
093118100BA               000004241000000008000004268000000002R    BB000000000025108000 C       
093118100BA               000004241000000001000004268000000002R    BB000000000025108100 C       
093118100BA               000004240000000002000004268000000002R    BB000000000025108200 C       
093118100YA               000004244000000004000004268000000006R    YY000000000025108300ACB     A
093118100YA               000004244000000007000004268000000006R    YY000000000025108400ACB     A
093118100YA               000004244000000010000004268000000006R    YY000000000025108500ACB     A
093118100KA               000004240000000003000004262000000001R    KK000000000025108600 C       
093118103NA               000004249000000002000004263000000001R    NN000000000025109300 C       
093118103NA               000004249000000002000004263000000002R    NN000000000025109400 C       
093118103NA               000004249000000002000004263000000001R    NN000000000025109500 C       
093118109NA               000004249000000002000004264000000001R    NN000000000025109800 C       
093118109NA               000004249000000002000004264000000002R    NN000000000025109900 C       
093118112NA               000004249000000002000004263000000001R    NN000000000025110000 C       
093118112NA               000004249000000002000004263000000002R    NN000000000025110100 C       
093118142ZA               000004254000000002000004267000000004R    ZZ000000000025115800 C       
093118180ZA               000004254000000002000004267000000003R    ZZ000000000025117200 C       
093118180ZA               000004254000000002000004267000000002R    ZZ000000000025117300 C       
093118181PA               000004254000000002000004264000000001R    PP000000000025117460 C       
093118181PA               000004254000000002000004267000000004R    PP000000000025117500 C       
093118181PA               000004254000000002000004267000000003R    PP000000000025117700 C       
093118181PA               000004254000000002000004267000000002R    PP000000000025117800 C       
093118182TA               000004251000000001000004261000000001R    TT000000000025118060 C       
093118182NA               000004250000000001000004263000000002R    NN000000000025118500 C       
093118182JA               000004240000000009000004268000000004R    JJ000000000025118600 C       
093118186NA               000004250000000001000004263000000003R    NN000000000025119600 C       
093118232KA               000004240000000002000004262000000001R    KK000000000025121400 C       
093118233NA               000004250000000001000004263000000003R    NN000000000025121500ACB     A
093118236PA               000004254000000002000004267000000001R    PP000000000025121600 C       
093118236PA               000004254000000002000004268000000002R    PP000000000025121800 C       
093118237ZA               000004254000000001000004267000000002R    ZZ000000000025122060 C       
093118478JA               000004240000000009000004269000000001R    JJ000000000025136300 C       
093118484NA               000004254000000003000004263000000003R    NN000000000025136460ACB     A
093118484NA               000004254000000004000004263000000003R    NN000000000025136560ACB     A
093118539NA               000004254000000003000004263000000003R    NN000000000025139060ACB     A
093118539JA               000004240000000009000004268000000001R    JJ000000000025139100 C       
093118541JA               000004240000000009000004267000000002R    JJ000000000025139200 C       
093118543YA               000004244000000010000004267000000002R    YY000000000025139300ACB     A
093118543YA               000004244000000010000004267000000003R    YY000000000025139400ACB     A
093118543JA               000004240000000009000004267000000003R    JJ000000000025139500 C       
093119081JA               000004242000000001000004267000000003R    JJ000000000025199800 C       
093119093KA               000004240000000002000004268000000001R    KK000000000025202900 C       
093119094KA               000004240000000002000004261000000001R    KK000000000025203000 C       
093119193DA               000004244000000008000004300000000012RFLOWDD000000000025213301AC      A
093119412MA               000004243000000004000000000000000000R    MM000000000025231800 C       
093119461PA               000004254000000002000004266000000001R    PP000000000025233500 C       
093119462PA               000004254000000002000004266000000002R    PP000000000025233600 C       
093120022DA               000004244000000008000004273000000008RFLOWDD000000000025277301AC      A
093121464JA               000004242000000001000004267000000001R    JJ000000000025459400 C       
093121464YA               000004244000000010000004267000000001R    YY000000000025459600ACB     A
093121464JA               000004242000000001000004268000000001R    JJ000000000025459700 C       
093121464YA               000004244000000010000004268000000006R    YY000000000025459800ACB     A
093121466JA               000004242000000001000004269000000001R    JJ000000000025459900 C       
093121520JA               000004242000000001000004264000000002R    JJ000000000025472100 C       
093121524NA               000004254000000003000004263000000005R    NN000000000025472600ACB     A
093121524BA               000004240000000002000004263000000002R    BB000000000025473100 C       
093121524BA               000004240000000002000004263000000003R    BB000000000025473200 C       
093121526YA               000004244000000010000004263000000001R    YY000000000025473900 C       
093121526YA               000004244000000010000004263000000002R    YY000000000025474000 C       
093121526JA               000004242000000001000004263000000001R    JJ000000000025474100 C       
093121526MA               000004243000000004000004274000000004R    MM000000000025474200 C       
093121603NA               000004251000000001000004263000000005R    NN000000000025479460ACB     A
093121604YA               000004244000000010000004263000000001R    YY000000000025479500 C       
093121604NA               000004250000000001000004263000000005R    NN000000000025479600ACB     A
093121604JA               000004242000000001000004264000000002R    JJ000000000025479700 C       
093121661NA               000004252000000003000004263000000005R    NN000000000025482600ACB     A
093121661NA               000004252000000004000004263000000005R    NN000000000025482700ACB     A
093123372XA               000004243000000009000000000000000000R    XX000000000025655100 C       
093124252XA               000004243000000009000004276000000009R    XX000000000025737100 C       
093126378NA               000004252000000003000004263000000005R    NN000000000025990000ACB     A
093126522NA               000004252000000003000004263000000003R    NN000000000026004500ACB     A
093126522BA               000004240000000002000004263000000001R    BB000000000026004600 C       
093126522BA               000004240000000002000004268000000001R    BB000000000026004700 C       
093126523YA               000004244000000010000004268000000006R    YY000000000026004800ACB     A
093126524JA               000004242000000001000004269000000001R    JJ000000000026004900 C       
093126567NA               000004250000000001000004263000000003R    NN000000000026008800ACB     A
093126582NA               000004250000000001000004262000000002R    NN000000000026011900ACB     A
093126582YA               000004244000000010000004262000000003R    YY000000000026012000 C       
093126582YA               000004244000000010000004262000000004R    YY000000000026012100 C       
093126582JA               000004242000000001000004262000000001R    JJ000000000026012200 C       
093126582NA               000004250000000001000004262000000003R    NN000000000026012400ACB     A
093126584NA               000004250000000001000004261000000004R    NN000000000026012860ACB     A
093126584YA               000004244000000010000004261000000002R    YY000000000026012900 C       
093126585NA               000004250000000001000004261000000005R    NN000000000026013060ACB     A
093126585NA               000004249000000002000004261000000005R    NN000000000026013100ACB     A
093126627NA               000004254000000003000004261000000005R    NN000000000026018310ACB     A
093126628NA               000004254000000004000004261000000005R    NN000000000026018410ACB     A
093126631NA               000004254000000004000004261000000006R    NN000000000026019110ACB     A
093127483TA               000004254000000001000004261000000001R    TT000000000026093000 C       
093127483TA               000004254000000002000004261000000001R    TT000000000026093100 C       
093127484XA               000004254000000001000004276000000009R    XX000000000026093200 C       
093128579NA               000004254000000005000004261000000006R    NN000000000026169110ACB     A
093128580NA               000004254000000004000004261000000006R    NN000000000026169210ACB     A
093128699BA               000004240000000002000004261000000001R    BB000000000026178000 C       
093128700BA               000004240000000002000004261000000002R    BB000000000026178100 C       
093139076TA               000004254000000001000004261000000001R    TT000000000027202400 C       
093139076NA               000004254000000004000004261000000007R    NN000000000027202810ACB     A
093139076BA               000004240000000002000004261000000001R    BB000000000027203000 C       
093139207NA               000004254000000002000004261000000007R    NN000000000027220460ACB     A
093139207PA               000004249000000003000004266000000002R    PP000000000027220560 C       
093139207NA               000004250000000001000004261000000007R    NN000000000027220660ACB     A
093139207ZA               000004240000000002000004267000000002R    ZZ000000000027220760 C       
093139207ZA               000004240000000002000004266000000001R    ZZ000000000027220800 C       
093139207TA               000004251000000001000004261000000001R    TT000000000027220900 C       
093139207ZA               000004240000000002000004266000000002R    ZZ000000000027221000 C       
093139207ZA               000004240000000002000004260000000002R    ZZ000000000027221160 C       
093139207TA               000004251000000001000004260000000001R    TT000000000027221200 C       
093139207TA               000004251000000001000004260000000002R    TT000000000027221300 C       
093139208NA               000004249000000002000004261000000007R    NN000000000027221400ACB     A
093139208XA               000004243000000009000004276000000009R    XX000000000027221560 C       
093139208TA               000004251000000001000004260000000003R    TT000000000027221610 C       
093139208TA               000004251000000001000004260000000004R    TT000000000027221710 C       
093139208XA               000004243000000009000004260000000001R    XX000000000027221800 C       
093139208TA               000004251000000001000004259000000001R    TT000000000027221910 C       
093139208NA               000004249000000002000004261000000007R    NN000000000027222000 C       
093139208TA               000004251000000001000004258000000001R    TT000000000027222110 C       
093139208PA               000004249000000003000004261000000001R    PP000000000027222200 C       
093139208PA               000004249000000003000004257000000001R    PP000000000027222360 C       
093139208NA               000004249000000002000004261000000007R    NN000000000027222400ACB     A
093139208PA               000004249000000002000004257000000001R    PP000000000027222500 C       
093139208PA               000004249000000001000004257000000001R    PP000000000027222600 C       
093139208PA               000004249000000001000004257000000002R    PP000000000027222760 C       
093139208NA               000004249000000002000004261000000007R    NN000000000027222800 C       
093139209PA               000004244000000001000004257000000002R    PP000000000027222900 C       
093139209ZA               000004240000000002000004257000000001R    ZZ000000000027223000 C       
093139209NA               000004249000000002000004261000000007R    NN000000000027223100ACB     A
093139209TA               000004251000000001000004257000000001R    TT000000000027223200 C       
093139209PA               000004240000000002000004257000000002R    PP000000000027223300 C       
093139209YA               000004244000000006000004261000000002R    YY000000000027223400 C       
093139209NA               000004249000000002000004261000000007R    NN000000000027223500 C       
093139209KA               000004240000000002000004274000000002R    KK000000000027223600 C       
093139209KA               000004240000000002000004274000000003R    KK000000000027223700 C       
093139209TA               000004251000000001000004256000000001R    TT000000000027223810 C       
093139209TA               000004251000000001000004256000000002R    TT000000000027223910 C       
093139209NA               000004249000000002000004261000000007R    NN000000000027224000ACB     A
093139209NA               000004249000000001000004261000000007R    NN000000000027224100ACB     A
093139210NA               000004249000000001000004261000000007R    NN000000000027224300 C       
093139210NA               000004249000000001000004261000000006R    NN000000000027224500 C       
093139210KA               000004240000000002000004257000000001R    KK000000000027224600 C       
093139211NA               000004249000000001000004261000000007R    NN000000000027225000 C       
093139211DA               000004127000000001000004273000000008RFLOWDD000000000027225101AC      A
093139211NA               000004247000000003000004261000000007R    NN000000000027225200 C       
093139212TA               000004251000000001000004256000000003R    TT000000000027225310 C       
093139216NA               000004247000000003000004259000000001R    NN000000000027225600 C       
093139217NA               000004247000000003000004259000000002R    NN000000000027225700 C       
093139244NA               000004247000000003000004259000000003R    NN000000000027231600 C       
093139245NA               000004247000000003000004259000000004R    NN000000000027231800 C       
093139259ZA               000004240000000002000004260000000001R    ZZ000000000027233500 C       
093139289TA               000004251000000001000004256000000002R    TT000000000027234410 C       
093139289TA               000004251000000001000004256000000001R    TT000000000027234510 C       
093139294TA               000004249000000003000004256000000001R    TT000000000027234610 C       
093139295BA               000004238000000004000004261000000001R    BB000000000027234700 C       
093139295TA               000004249000000003000004255000000001R    TT000000000027234810 C       
093139295TA               000004249000000003000004255000000002R    TT000000000027234910 C       
093139295NA               000004247000000003000004258000000001R    NN000000000027235000 C       
093139295ZA               000004227000000002000004260000000001R    ZZ000000000027235100 C       
093139295PA               000004237000000001000004257000000002R    PP000000000027235200 C       
093139295TA               000004249000000003000004255000000003R    TT000000000027235310 C       
093139295TA               000004249000000003000004255000000004R    TT000000000027235410 C       
093139295PA               000004236000000002000004257000000002R    PP000000000027235500 C       
093139295KA               000004237000000001000004257000000001R    KK000000000027235600 C       
093139295KA               000004236000000001000004257000000001R    KK000000000027235700 C       
093139295NA               000004247000000003000004258000000002R    NN000000000027235800 C       
093139297ZA               000004227000000002000004266000000002R    ZZ000000000027236200 C       
093139298XA               000004243000000009000004276000000009R    XX000000000027236300 C       
093139298PA               000004236000000002000004257000000001R    PP000000000027236400 C       
093139298PA               000004236000000002000004259000000001R    PP000000000027236500 C       
093139299PA               000004236000000002000004261000000002R    PP000000000027236600 C       
093139304NA               000004247000000003000004258000000003R    NN000000000027238000 C       
093139307NA               000004247000000003000004257000000001R    NN000000000027238100 C       
093139307NA               000004247000000003000004257000000002R    NN000000000027238200 C       
093139333NA               000004247000000003000004257000000002R    NN000000000027239300ACB     A
093139335MA               000000000000000000000004274000000004R    MM000000000027239500 C       
093139337NA               000004247000000003000004257000000003R    NN000000000027239600ACB     A
093139341NA               000004244000000002000004257000000003R    NN000000000027239800ACB     A
093139341NA               000004244000000001000004257000000003R    NN000000000027239900ACB     A
093139385TA               000004249000000003000004255000000003R    TT000000000027245710 C       
093139385TA               000004249000000003000004255000000002R    TT000000000027245810 C       
093139385NA               000004245000000001000004257000000003R    NN000000000027245900ACB     A
093139386NA               000004245000000001000004257000000004R    NN000000000027246100ACB     A
093139386JA               000004242000000001000004255000000001R    JJ000000000027246200 C       
093139387TA               000004249000000003000004255000000003R    TT000000000027246310 C       
093139440TA               000004249000000003000004255000000002R    TT000000000027249510 C       
093139440TA               000004249000000002000004255000000002R    TT000000000027249610 C       
093139537NA               000004249000000002000004257000000004R    NN000000000027261300ACB     A
093139541NA               000004249000000002000004255000000001R    NN000000000027261600ACB     A
093139541TA               000004249000000002000004255000000004R    TT000000000027261760 C       
093139541NA               000004249000000002000004255000000002R    NN000000000027261860ACB     A
093139554NA               000004249000000002000004255000000003R    NN000000000027263400ACB     A
093139574YA               000004244000000006000004262000000003R    YY000000000027264700 C       
093139575NA               000004249000000002000004255000000002R    NN000000000027264900ACB     A
093139577YA               000004244000000006000004264000000006R    YY000000000027265000 C       
093139632ZA               000004227000000002000004259000000001R    ZZ000000000027270500 C       
093139632ZA               000004227000000002000004259000000002R    ZZ000000000027270600 C       
093139633BA               000004238000000004000004259000000001R    BB000000000027270700 C       
093139633BA               000004238000000004000004259000000002R    BB000000000027270800 C       
093139636ZA               000004227000000002000004258000000002R    ZZ000000000027272300 C       
093139636BA               000004238000000004000004258000000001R    BB000000000027272500 C       
093139729YA               000004249000000002000004264000000006R    YY000000000027279300 C       
093139729JA               000004249000000001000004255000000001R    JJ000000000027279400 C       
093139729YA               000004249000000003000004264000000006R    YY000000000027279560 C       
093139883TA               000004249000000001000004255000000004R    TT000000000027301300 C       
093139883YA               000004249000000002000004264000000006R    YY000000000027301460 C       
093139883JA               000004242000000001000004255000000001R    JJ000000000027301500 C       
093139960PA               000004236000000001000004261000000002R    PP000000000027304900 C       
093140002XA               000000000000000000000004276000000009R    XX000000000027307500 C       
093140003DA               000004238000000008000004273000000008RFLOWDD000000000027307601AC      A
093140013YA               000004244000000006000004264000000006R    YY000000000027308100 C       
093140013TA               000004246000000001000004255000000004R    TT000000000027308200 C       
093140014TA               000004246000000001000004254000000001R    TT000000000027308360 C       
093140014TA               000004246000000001000004254000000002R    TT000000000027308460 C       
093140014TA               000004246000000001000004254000000003R    TT000000000027308560 C       
093140014KA               000004235000000001000004257000000001R    KK000000000027308600 C       
093140014TA               000004244000000001000004254000000003R    TT000000000027308700 C       
093140014PA               000004235000000001000004261000000002R    PP000000000027308800 C       
093140014TA               000004244000000001000004254000000004R    TT000000000027308960 C       
093140014YA               000004244000000003000004264000000006R    YY000000000027309000 C       
093140014PA               000004235000000002000004261000000002R    PP000000000027309100 C       
093140014YA               000004238000000004000004264000000006R    YY000000000027309200 C       
093140014NA               000004244000000001000004255000000002R    NN000000000027309360ACB     A
093140014NA               000004244000000001000004255000000002R    NN000000000027309400 C       
093140014NA               000004244000000001000004255000000002R    NN000000000027309500ACB     A
093140015NA               000004244000000001000004255000000003R    NN000000000027309700ACB     A
093140015PA               000004235000000001000004261000000002R    PP000000000027309900 C       
093140015TA               000004244000000001000004253000000001R    TT000000000027310060 C       
093140015KA               000004234000000001000004257000000001R    KK000000000027310100 C       
093140015NA               000004244000000001000004255000000003R    NN000000000027310260 C       
093140015TA               000004244000000001000004253000000002R    TT000000000027310360 C       
093140015YA               000004238000000004000004264000000003R    YY000000000027310400 C       
093140015NA               000004244000000001000004255000000003R    NN000000000027310560ACA     A
093140015PA               000004234000000001000004261000000002R    PP000000000027310600 C       
093140015YA               000004238000000004000004267000000002R    YY000000000027310700ACB     A
093140015YA               000004238000000004000004260000000003R    YY000000000027310800 C       
093140015YA               000004238000000004000004260000000006R    YY000000000027310900 C       
093140015NA               000004244000000001000004255000000003R    NN000000000027311000ACC     A
093140015YA               000004238000000004000004260000000007R    YY000000000027311100 C       
093140015DA               000004238000000008000004256000000001RFLOWDD000000000027311201AC      A
093140015DA               000004238000000008000004252000000001RFLOWDD000000000027311341AC      A
093140016NA               000004242000000001000004255000000003R    NN000000000027311400ACC     A
093140016DA               000004238000000008000004256000000001RFLOWDD000000000027311561AC      A
093140016NA               000004242000000001000004255000000003R    NN000000000027311600ACB     A
093140016NA               000004242000000002000004255000000003R    NN000000000027311700ACB     A
093140017DA               000004238000000008000004273000000008RFLOWDD000000000027311801AC      A
093140023NA               000004242000000002000004254000000001R    NN000000000027312000ACB     A
093140025NA               000004242000000002000004254000000002R    NN000000000027312100ACB     A
093140053NA               000004242000000002000004254000000003R    NN000000000027313600ACB     A
093140053NA               000004242000000002000004254000000004R    NN000000000027313700ACB     A
093140105TA               000004244000000001000004253000000001R    TT000000000027317210 C       
093140105TA               000004244000000001000004254000000003R    TT000000000027317360 C       
093140105NA               000004242000000002000004254000000004R    NN000000000027317400 C       
093140105NA               000004242000000002000004254000000004R    NN000000000027317600ACB     A
093140141NA               000004243000000001000004254000000004R    NN000000000027320500ACB     A
093140141NA               000004243000000001000004254000000003R    NN000000000027320660ACB     A
093140141NA               000004243000000001000004254000000003R    NN000000000027320700ACC     A
093140141NA               000004243000000002000004254000000003R    NN000000000027320800ACC     A
093140141NA               000004243000000001000004254000000003R    NN000000000027320900ACC     A
093140142JA               000004229000000007000004255000000001R    JJ000000000027321000 C       
093140143PA               000004234000000001000004260000000001R    PP000000000027321200 C       
093140143PA               000004234000000001000004260000000002R    PP000000000027321300 C       
093140143NA               000004242000000001000004254000000003R    NN000000000027321400ACC     A
093140144NA               000004242000000001000004254000000003R    NN000000000027321500ACB     A
093140159TA               000004244000000001000004254000000002R    TT000000000027322160 C       
093140178NA               000004242000000001000004254000000004R    NN000000000027322260ACB     A
093140210KA               000004234000000001000004269000000001R    KK000000000027323500 C       
093140216KA               000004234000000001000004254000000001R    KK000000000027323800 C       
093140222NA               000004244000000001000004254000000004R    NN000000000027323900ACB     A
093140223NA               000004244000000002000004254000000004R    NN000000000027324110ACB     A
093140223NA               000004244000000002000004254000000004R    NN000000000027324200ACC     A
093140333DA               000004238000000008000004300000000012RFLOWDD000000000027336201AC      A
093140336NA               000004244000000003000004254000000004R    NN000000000027336710ACC     A
093140442MA               000004235000000004000004274000000004R    MM000000000027339900 C       
093140535YA               000004244000000001000004260000000007R    YY000000000027359500 C       
093140535YA               000004244000000002000004260000000007R    YY000000000027359600 C       
093140535JA               000004244000000001000004255000000001R    JJ000000000027359700 C       
093140552MA               000004235000000004000000000000000000R    MM000000000027362700 C       
093140761NA               000004244000000003000004254000000003R    NN000000000027429010ACC     A
093140761YA               000004244000000001000004260000000007R    YY000000000027429300 C       
093140761JA               000004229000000007000004255000000001R    JJ000000000027429600 C       
093140762BA               000004230000000001000004258000000001R    BB000000000027429900 C       
093140882XA               000004231000000009000004276000000009R    XX000000000027450800 C       
093140932PA               000004233000000001000004260000000002R    PP000000000027472100 C       
093140932KA               000004233000000001000004254000000001R    KK000000000027472200 C       
